:20000000483F0020C59E000001CA011001CA011001CA011001CA011001CA011001CA0110AE
:1C00200001CA011001CA011001CA011001CA011001CA011001CA01103FCA011082
:20003C001FB58DF80C002448016824480088E0B123480068014218D022480068014204D1FD
:20005C0021480068008801420FD0224840F28763046800930CA201929DF80C001C4B0290A9
:20007C001A881A4B186804A3A047032003A9012209F05EFF00901FBD70726F6A6563745F45
:20009C007A65726F2E6300C02843422920474150205374617465206368616E67653A20253F
:2000BC00642C2053656E64696E67206D736720746F206170702E00C090E40000D0E40000CB
:2000DC00400500003C05000044050000ACE4000084050000A4E40000014908607047C04625
:0400FC00642F00204D
:200100003C000000000000000000000034010000000000000000000001000000000000006D
:1C01200000000000000000000000000001000000000000000800000000000000BA
:20013C00340000000000000000000000680100000000000000000000010000000000000005
:14015C00010000000000000000000000080000000000000086
:2001700030000000000000000000000098010000040000000000000001000000FFFFFFFFA5
:10019000FF00000001000000080000000000000057
:2001A0002C0000000000000000000000C4010000040000000000000001000000FFFFFFFF4D
:0C01C000FFFFFFFF08000000000000002F
:2001CC0034050000E401000099A1011095A70110A5C2011009B2011045B80110000000000B
:0801EC00000000002F000000DC
:2001F400280000000000000000000000140200000000000000000000FFFFFFFF00000000B1
:080214000800000000000000DA
:20021C00300500003002000069C201106DC101101FC2011095BA011000000000000000008E
:04023C002D00000091
:20024000300500005402000075C20110A9B601109DBF011049B601100000000000000000DE
:040260002E0000006C
:200264002400000000000000000000008002000000000000000000000000000008000000CC
:040284000000000076
:20028800240000000000000000000000A40200000000000000000000000000000800000084
:0402A8000000000052
:2002AC00240000000000000000000000C8020000000000000100000000000000080000003B
:0402CC00000000002E
:2002D00000000000F81B002004000000000000000000000020000000700100003000000016
:2002F0001C020000001C00200400000000000000000000000C000000300400001800000038
:2003100040020000081C0020040000000000000000000000240000004804000018000000BB
:2003300000000000101C002004000000000000000000000010000000A00100002C00000080
:20035000CC010000181C0020040000000000000000000000200000006402000024000000BE
:20037000FFFFFFFF201C00200400000000000000000000002800000088020000240000003B
:20039000FFFFFFFF281C0020040000000000000000000000580000003C0100003400000020
:2003B000FFFFFFFF301C002004000000000000000000000010000000600400001800000035
:2003D000FFFFFFFF381C00200400000000000000000000001C000000AC02000024000000AB
:2003F000FFFFFFFF401C002004000000000000000000000038000000F4010000280000001C
:20041000FFFFFFFF481C002004000000000000000000000054000000000100003C000000B7
:1804300018000000000000000000000040040000080000000000000050
:1804480018000000000000000000000058040000080000000000000020
:18046000180000000000000000000000700400000800000000000000F0
:080478000200000064E4000032
:0404800009F096B831
:040484000100000073
:0404880000008C0FD5
:04048C000000BC0FA1
:040490003200000036
:040494000100000063
:04049800781B0020AD
:04049C00000200005A
:0404A0000000000058
:0404A40001CA011078
:0404A8000000000050
:0404AC00000000004C
:0404B0000800000040
:0404B40000007612BC
:0404B800601A0020A6
:0404BC00010000003B
:0404C000901B00206D
:0404C400080000002C
:0404C8000000000030
:0404CC00000000002C
:0404D0000000000028
:0404D4000000000024
:0404D8000000000020
:0404DC00010000001B
:0404E000C81A002016
:0404E400060000000E
:0404E800010000000F
:0404EC00C81900200B
:0404F0000000000008
:0404F4000000000004
:0404F80000020000FE
:0404FC0000000000FC
:02050000704742
:020502002900CE
:020504000100F4
:020506002500CE
:020508002D00C4
:02050A002E00C1
:02050C002F00BE
:02050E000100EA
:0105100001E9
:080514000300000038E40000C0
:08051C000000000000000000D7
:040524000000930D33
:040528000000AD0D15
:04052C0087C401106F
:04053000380500008A
:040534003805000086
:0405380000000000BF
:04053C0090610000CA
:0405400090610000C6
:0405440000000000B3
:04054800901B0020E4
:04054C008FBE00005E
:040550002000000087
:0405540070E3000050
:04055800B8E1000006
:04055C000DC30110BA
:04056000BFB5000023
:04056400C7B9000013
:0405680099C801101D
:04056C009BC8011017
:040570000000000087
:0405740080C400003F
:0405780054E000004B
:04057C006CE000002F
:040580003CE000005B
:020584000280F3
:020586000380F0
:02058800C0179A
:02058A0001006E
:01058C00016D
:040590000000000067
:040594000000000063
:04059800000000005F
:04059C00000000005B
:0405A000DBC20000BA
:0405A400B1A60000FC
:0405A800BDB60000DC
:0405AC006DAB000033
:0405B000CFAC0000CC
:0405B40031B0000062
:0405B8007D8500003D
:0405BC0079C0000002
:0405C000E18F0000C7
:0405C40099B00000EA
:0405C8008DBA0000E8
:0405CC000800000023
:0405D0002400000003
:0405D400180000000B
:0405D80028000000F7
:0405DC0020000000FB
:0405E0003C000000DB
:0405E4000C00000007
:0405E80034000000DB
:2005EC002DE9F04FADF18C0D00F0E6FD954804889548D0F800A09548954A00680AEA0007C3
:20060C0011971768AD4A10941488AD4A12681392AC4A12681492AC4AA749126809681592CC
:20062C0002EA00060A401792A84A126816960AEA010B189202EA00060A40A6491C91A7493F
:20064C00A348199600681A92A34E1B908B311D9195A112910820ADF820000A25ADF82250CE
:20066C004FF0FF33099308A80AF0A4FB0028F1D100200F900825ADF830500923ADF83230EA
:20068C000CA80AF097FBDDF838C0CDF878C00028CDF83CC040F03381BDF834004FF0010846
:2006AC00102840F02481AC489DF836100078884240F01D81654628884FF6FF71814200F07F
:2006CC0097802B78913B74D01F3B40F010816878109A162844D028797E2828D07F2812D085
:2006EC00131C60D0119B002B5DD0BBF1000F03D138881AEA000F56D040F21360009098A393
:20070C000193287911E0002A4DD0119B002B4AD0BBF1000F03D138881AEA000F43D040F2C8
:20072C000E600090B0A301932889514610E01599002A38D0169B002B35D0179B13B9388891
:20074C00014230D040F209600090B4A30193287A0290DDF850C0129B13982246E04722E032
:20076C0018999AB1199B8BB11A9B13B9388801420CD04FF4BE60C0A30090DDF850C0019354
:20078C002879129B029013982246E047688808210AF0DAFC38B9404605F092F86E484FF05F
:2007AC000008C560A3E0297905F108000BF0D2F99DE068780E2840F09A80109D002D00F070
:2007CC009680119D002D00F09280BBF1000F04D138881AEA000F00F08A8040F2D350BAA509
:2007EC0000900022DDF850C001955146029255E0688800097BD35848C568002D77D0014691
:20080C0080786B88401C88702A791F93102020920AF094FF05F10809051C1BD0022115225C
:20082C000BF01DFC1F982881209AAA72C5F80C900AF094FFC74A294609F018FE0546162D5F
:20084C0009D10CE0D0E4000090E40000400500004405000004254048C068042D40D1109D48
:20086C001899002D43D0199D002D40D01A9D15B9388801423BD038484FF4C962C06800924D
:20088C00A8A501950079344B0290987803900022049215460595DDF86CC00692129B13989E
:2008AC002246E04723E0C04670726F6A6563745F7A65726F2E6300C03C0500008405000063
:2008CC00ACE40000A4E400008CE4000094E40000A8E4000000190020C0070020450D0020EE
:2008EC00408800210AF030FC284604F0E9FF0F9D2DB1B8F1000F02D01E980BF04FF9164828
:20090C0080680BF0B3FD00287FF4A4AE124880680BF0A8FD00F109051F9000F10901109A16
:20092C00007A002800F01881401E00F09580401E67D0401E00F0E183801E40F0E183131C75
:20094C0039D0119B002B36D0BBF1000F1BD138881AEA000F2FD001E0C40C002013E0C04662
:20096C0052656365766965642047415454204D6573736167652E204F70636F64653A2030DD
:20098C00782530327800AB78002B0CBFAFA0B2A04FF43D71002200919FA30193DDF86CC09F
:2009AC00029011460392129B049113980592224606915146E047B5F8008010200AF0BEFE59
:2009CC00051C00F09D83012113220BF048FBA5F808800020A8720246EA600AF0BFFEA04AB3
:2009EC00294609F043FD8BE34D54552053697A65206368616E67653A2025642062797465E7
:200A0C007300288841F25011814240F07983287969886D1D2A4604F0A3F971E3466C6F771C
:200A2C0020636F6E74726F6C2076696F6C617465642E204F70636F6465206F66206F666619
:200A4C00656E64696E6720415454206D73673A2030782530327800C0288841F230118142FD
:200A6C0040F04E83B5F8050000283FD0401E28D0401E3DD1B2A03AE04F7574676F696E6706
:200A8C00205246204649464F2066756C6C2E2052652D7363686564756C65207472616E73B4
:200AAC006D697373696F6E206F66206D73672077697468206F70636F646520307825303207
:200ACC007800B2A013E0C04648434920436F6D6D616E6420436F6D706C65746520457665FB
:200AEC006E7420726563656976656400ADA021902879012840F00483002A00F00183119DD6
:200B0C00002D00F0FD82BBF1000F04D138881AEA000F00F0F582219940F2AC50B2A599A2E9
:200B2C00CEE2C0465265747279696E67206D6573736167652077697468206F70636F646524
:200B4C00203078253032782E20417474656D7074202564004FC000002B8841F230101B1A82
:200B6C0000F05282203B40F0CB82A978B14A681D07F058FF2B79109A002B73D05B1E40F079
:200B8C00BF82131C1ED0119BE3B1BBF1000F03D138881AEA000F15D04FF483600090B1A35A
:200BAC000193B7A20292A34AB8A1DDF86CC01398129B0391002104920A46059151460692A9
:200BCC002246E047B3A00AF0AAFF09F0FDF9109B002B00F09582119B002B00F09182BBF132
:200BEC00000F04D138881AEA000F00F089826D79002D0CBFAAA0ABA040F225410091C9A52D
:200C0C000195CCA3029303900022049211460591154606955EE2C046426F6E644D677220F1
:200C2C005265717565737465642070617373636F64652E2057652061726520257320706179
:200C4C007373636F6465202530366400446973706C6179696E6700C053656E64696E67005C
:200C6C0041C00000F2B1119BE3B1BBF1000F03D138881AEA000F15D040F2CD30009079A362
:200C8C0001937FA202926B4AC3A1DDF86CC01398129B0391002104920A460591514606922D
:200CAC002246E04768793070681D0BF0BFF8022840F217816879DDF84080483800F0F48093
:200CCC00083800F0B980801E00F09C80801E72D014383FD008381AD0001F40F00281E81DB9
:200CEC0008F060FE5FEA0805B06000F0FA80119D002D00F0F680BBF1000F04D13A881AEA2B
:200D0C00020F00F0EE804FF47971B8A5DFE0E81D08F048FEB8F1000F306100F0E280119D83
:200D2C00002D00F0DE80BBF1000F04D13A881AEA020F00F0D68040F2EF31A5A5C7E0C04636
:200D4C00496E6469636174696F6E7320656E61626C656400E81D08F025FEB8F1000FB0613E
:200D6C0000F0BF80119D002D00F0BB80BBF1000F04D13A881AEA020F00F0B38040F2FA314B
:200D8C00B9A5A4E053747265616D00C04E6F74696669636174696F6E7320656E61626C6558
:200DAC006400C0464E6F74692F496E642064697361626C656400E81D08F0F4FDB8F1000FDB
:200DCC00706000F08E80119D002D00F08A80BBF1000F04D13A881AEA020F00F0828040F2D9
:200DEC00E9319AA573E0C04643434344204368616E6765206D73673A2025732025733A2057
:200E0C00257300C0E81D08F0CDFDB8F1000FF06167D0119D002D64D0BBF1000F03D1388809
:200E2C001AEA000F5DD040F205400090ADA5019530694EE0450D0020E81D08F0B3FDB8F1E8
:200E4C00000FF0604DD0119D002D4AD0BBF1000F03D13A881AEA020F43D04FF47D71AFA517
:200E6C0035E0C04656616C7565204368616E6765206D73673A2025732025733A20257300E5
:200E8C00454E56205365727669636500524553554C5400C06368616E6765642F6E00C04660
:200EAC006F6666006F6E00C0E81D08F07BFDB8F1000F706115D0119D9DB1BBF1000F03D1E0
:200ECC003A881AEA020F0CD040F2FF31ABA5009101950290DDF850C0129B139822465146AC
:200EEC00E0471C982C213578417096F80180726BD6F828C0D6F82C90D6F824E00570F16B91
:200F0C00306BB36B1E90306C612D1ADC612D2AD0483D4ED0083D4AD0AD1E46D0AD1E42D0F6
:200F2C004BE0C0465475726E696E6720257320257300C0461B5B33326D4C4544311B5B3023
:200F4C006D00623D2DD0ED1E2AD0ED1E21D06D1F0B2D32D8DFE805F01B31181531160D0B19
:200F6C0009310806336A19461E911E9A0AE0B26808E08D491C9D81F800808C492C22EA70C9
:200F8C0019E03269944602E00120F07015E0E14606E0B0690EE0C046434F4D4D414E440066
:200FAC00CE46704606E0706804E0F06902E0F06800E070697C4908F09DF9B078012804D1F4
:200FCC00F5780DB10020B0709AE00020F07097E053657474696E67204D696E20507265734D
:200FEC00737572652025642000C046C053657474696E67204D696E2054656D706572617413
:20100C0075726520256420002B79002B39D05B1E76D1002A74D0119B002B71D0BBF1000FD6
:20102C0003D138881AEA000F6AD040F27F50009043A3019368790290A8790390E87904909C
:20104C00002205921146069144E0C04653657474696E67204D61782054656D70657261742D
:20106C00757265202564200053657474696E67204D696E2048756D696469747920256420F7
:20108C0000C0DDF8748000212822404607F09EF86D1D27222946404606F05FFB109D002D4B
:2010AC002ED0119D002D2BD0BBF1000F03D138881AEA000F24D03E494FF4AF603D4D1EA2D7
:2010CC000090019534A3029303920491002505952A460692DDF86CC0129B13985146224629
:2010EC00E0470DE053657474696E67204D696E205261696E2025642000C0087802F0B0FB5E
:20110C000820ADF828000525ADF82A501F9B0B930AA809F04FFEFFF7F2BBC04653657474EC
:20112C00696E67204D61782050726573737572652025642000C046C0537472696E6700C0E0
:20114C0056616C7565204368616E6765206D73673A20446174612053657276696365205381
:20116C00747265616D3A20253032783A253032783A253032782E2E2E00C046C0536574748F
:20118C00696E67204D61782048756D69646974792025642000C046C04461746120536572FF
:2011AC007669636500C046C00219002004190020D00D0020700E00002DE9F04F0820ADF1A8
:2011CC00B40DADF830000127ADF832700CA809F0F1FD9B489DF83410904A01700E99148819
:2011EC0041608D49DFF838A2096873A680460FF2B8192991D4B150460068014216D0894862
:20120C000068014204D188480068008801420DD088484FF4CA730568009300220196844B8A
:20122C0002921A88814B18684B46A84730460AF076FC08F0C9FE002508F13406C8F8145083
:20124C00304629460BF00AF908F1400008F14C01C8F8086006F066FB51460968DFF8D8A149
:20126C00C8F810002A9100BB50460168CCB12A98014216D06B480068014204D16A48006868
:20128C00008801420DD06B4840F2AF130668009359A20192664B02951A88644B18684B46BA
:2012AC00B0470BF0D7F8D8F8100064490AF01EFFF0B150460168CCB12A98014216D0594814
:2012CC000068014204D158480068008801420DD0584840F2B51306680093C7A20192544B9C
:2012EC0002951A88514B18684B46B0470BF0B2F803A82946242208230BF0A8F8AB46BA4649
:20130C0048F2A060CDF824B039468DF89EA00DF19E02ADF84C0040F2053002F001FC40F295
:20132C000630022113AA02F0FBFB08F101024FF44270394602F0F4FB08F1580240F2073096
:20134C00142102F0EDFB08F15806002C00F08B8029992A98014200F0868032480068014212
:20136C0004D131480068008801427CD02946202208F1A10006F02AFF2D482C4D2D4B078835
:20138C0028681D682B905846325C401CC0B2335C8119092B18BF082B01D11F2A52DB12189E
:2013AC00D0B22028F0DB52E070726F6A6563745F7A65726F2E6300C0496E697469616C69C0
:2013CC007A696E67207468652075736572207461736B2C2068617264776172652C20424CC2
:2013EC004520737461636B20616E642073657276696365732E00C0464572726F7220696E5A
:20140C00697469616C697A696E6720627574746F6E2070696E7300C090E40000D0E400000E
:20142C00400500003C05000044050000ACE4000084050000A4E400008CE400004D6D000006
:20144C00C40C00207748491C521E06F086F9754B40F2E910CBA6299900903A4601962B98FF
:20146C0002934B46A84706204FF4C86109F0BEF907204FF4C86109F0B9F908204FF4C86137
:20148C0009F0B4F909204FF4C86109F0AFF950461E2109F0ABF9CDF848B057468DF89FA0D4
:2014AC0058468DF8A0A004218DF8A10012AA8DF8A2704FF4816009F07FF94FF480605146D0
:2014CC000DF19F0209F078F940F20240514628AA09F072F940F2034051460DF1A10209F010
:2014EC006BF940F2064051460DF1A20209F064F9032009F001FB042009F0FEFAC848C94A25
:20150C00132108F0A5FEC849032008F091FFC74DC74A052105F1300008F09AFE29990FF270
:20152C009C2BD4B12A98014217D0C7480068014204D1C6480068008801420ED0C448056840
:20154C0040F2522705260097C24BCDF804B0C24F02961A88386895A3A847B64D0820042625
:20156C00ADF83C0098F800702878ADF83E60800010900FA809F01EFC00280CBF11980020F5
:20158C00AD490028C8604FD02E7846B14FF6FF72001F002120F8042F761E8170FAD1A648BE
:2015AC00A64A06214C3008F053FEDDF8A8A0DDF8A4902646E4B119EA0A0F19D0A2480068C5
:2015CC0019EA000F05D1A1480068008819EA000F0ED09F480468EE23062200939D49CDF884
:2015EC0004B09D4B02920A88186849467CA3A047914807701DE0C0464572726F72207265B4
:20160C00676973746572696E6720627574746F6E2063616C6C6261636B2066756E63746940
:20162C006F6E00C0650D00202646DDF8A490DDF8A8A07E4908F124006DA74860DEB119EAAB
:20164C000A0F18D08049096819EA010F05D17F490968098819EA010F0DD07D4940F2612324
:20166C000C6800937B4901977B4B02900A88186849464EA3A047704908F12C008860D6B1DD
:20168C0019EA0A0F17D07049096819EA010F05D16E490968098819EA010F0CD06C49FF26A6
:2016AC000C6800966B4B01976B4902901A8808684BA34946A0470DF14E000021282206F05D
:2016CC0085FD5F490DF17600282206F046F8002014210DF14E0203F043FB012014210DF1BA
:2016EC004E0203F03DFB002028210DF1760201F007FA012014210DF14E0201F001FAA878E2
:20170C0018BB08F118006E78EC78686218200AF015F8071C19D0042100220AF091FB304637
:20172C0009F035FF38727C720020B87205F14806FE6005F158033B6105F120027A610AF012
:20174C000DF8404A394608F091FE0C2009F0F6FF071C0BD0012104220AF081FC08F11C00FC
:20176C00B86009F0FBFF394609F046FD0120102109F0DCF90220102109F0D8F92DB0BDE8D8
:20178C00F08FC0464E616D6520696E20616476657274446174612061727261793A201B5B11
:2017AC0033336D25731B5B306D00C046656E76736572766963652E6300C046C05265676981
:2017CC0073746572656420736572766963652C202564206174747269627574657300C04623
:2017EC00646174615F736572766963652E6300C0526567697374657265642063616C6C6276
:20180C0061636B7320746F206170706C69636174696F6E2E2053747275637420257000C01B
:20182C007815002020E400006FC20000F818002060E1000068110020B817002034E10000AC
:20184C00D5E000007BC200003C05000044050000A4E4000084050000ACE400002DE9F04F0A
:20186C000120ADF15C0DADF81A000827ADF8187006A809F09FFA00263546DE4C8DF85450E5
:20188C009DF81C006070A6700898E0614FF6FF70A082384609F052FF5FEA00080CD00121D7
:2018AC0012220AF0DCFB09F059FF15A90123DA4A0091414608F0F8FD9DF854000121207020
:2018CC0004F1A80009F0CAF804F1CC00022109F0C5F804F1F000042109F0C0F804203146B4
:2018EC001022E07004F1480006F070FC04F158003146102206F06AFC25622672667207204B
:20190C00E67204F148021021A072022009F0C0F804F158020320102109F0BAF8042004F1A7
:20192C002002014609F0B4F819E0A078B4F84050B4F84230B4F84420B4F8461006280ED103
:20194C00ADF84250ADF84430ADF84620CB48ADF848100AF0B8FC012010A906F0B7FB0A20B6
:20196C00ADF80A00ADF808704FF0FF35039502A809F020FA002840F0E18130460C90ADF856
:20198C0024700925ADF8265009A809F013FADDF82C900028CDF8309040F0D081BDF828000B
:2019AC00102840F0BF8160789DF82A10884240F0B9814D4628884FF6FF71814200F0AA81C2
:2019CC002B78A23B00F08F812E3B40F0AB81A878B046002800F05C81801E00F03481401E0A
:2019EC00012840F20981801E00F0B980401E7FD0401E60D0083800F06781801E40F0698124
:201A0C0094F83E30A888052BADF834004BD001208DF83E0099480AF056FC94F83E00012868
:201A2C0020D004281ED003280DD002280BD00C98C188ADF836100189ADF838104189ADF8C5
:201A4C003A1080892BE0B4F84000B4F84250ADF83600B4F84430ADF83850B4F84600ADF833
:201A6C003A301CE0B4F84000E9888842D8BF081CADF836002989B4F842008842D8BF081C12
:201A8C00ADF838006989B4F844008842D8BF081CADF83A00B4F84610A889814200DC0146FE
:201AAC00ADF83C1001E08DF83E60B14A0DA8122109F0A3F80DE1AF480AF005FC68780028C6
:201ACC0040F00781E888E08228892083688960836A480AF01BFA002840F0FB80A56A002D78
:201AEC0000F0F7802B68E08A218B628B9847F0E0B5F804A00A2009F021FE5FEA00080AD070
:201B0C00012115220AF0ABFAA8F808A009F026FE414609F071FBB9483146062206F056FB89
:201B2C00E68226836683A879607354480AF0CBFB90480AF0C8FB4FF001084FF6FF706379E2
:201B4C00A0824BB9A879082814BF04200520A07040460AF0BFF8BCE00320A070B9E0687857
:201B6C00002840D1A549281D02680A60808888800623A3706889A082E889E082288A208392
:201B8C00688A6083E878207394F83E00012818BF022808D11F2008F03DFB4FF47A71414383
:201BAC00364808F047FD95F803B0B5F80AA0142009F0C4FD5FEA000800F08E800121142233
:201BCC000AF04DFA88F808B02D1DC8F80C50A8F810A0042088F8120009F0C0FD804A41460D
:201BEC0008F044FC78E0687831286BD12671042023E0C046681100206878002862D1A8781C
:201C0C00618AA278032813D02079657931B9012814BF6671267107E05DC00000054303D0BB
:201C2C00724808F007FDA278072AE0D1062004E0062A06D0207910B90320A0704CE00220F3
:201C4C00FBE70720F9E7687800283BD1EB78A078E179ABB9022818D0072816D0062802D11A
:201C6C006179012911D103280FD060480AF04EF958B901200AF02EF807E0C04634120020DA
:201C8C005F4A404607F00AFD68706878D0B920E06878B8B9564A0220102108F013FF554ADD
:201CAC000320102108F00EFF5648ED1C29680160AB888380544A01252846A179A57007F098
:201CCC00EDFC48B1A77007E0A888464A102108F07BFFB8F1010F25D1606A18B3016809B34C
:201CEC00A07888471EE0687913281BD12889012808D1A07B022805D11E480AF0E4FA07F0E8
:201D0C00E9FE0FE0052008F085FA0146194808F091FC07E06888C00B04D3374A04200146B3
:201D2C0008F0D0FE0C9848B1ADF810700320ADF81200CDF8149004A809F03CF8208A65796B
:201D4C002179420831D320F0010055EA010320822BD08DB92D49207A8DF84A00657A8DF815
:201D6C004B500A6813AB1A608988998007E0C04675C200005812002003208DF84A00A07A2E
:201D8C00E57A194A8DF8520006218DF853500DF14A0008F0B3F8616A30B1A77021B108685F
:201DAC0010B1096838468847208A810807D3184920F002002082304606F088F9208AC10816
:201DCC00FFF4CDAD20F00400A57B2082681E3FF4ACAD401E7FF4C3AD07F07CFEBFE5C04646
:201DEC0033C0000099C200008DC2000010120020B0110020C011002088110020A01100209C
:201E0C00EF11002094110020D01100209A110020A61100202DE9F04FD54C3220606064261C
:201E2C0066614FF0000BC4F818B0C4F820B06FF00900C4F824B0ADF16C0DA0604FF496602D
:201E4C00E0604FF4967020613046E06106F07CFFDFF84893DFF83C83CF4D30BBC64EC548D4
:201E6C00378801680FF2EC2ADFB1C4480068014217D0C3480068014204D1C2480068008864
:201E8C0001420ED0C24840F27B16076800965B46CDF804A0BD4E0293BB4B32881868ABA30B
:201EAC00B84750460AF0CEFA2EE05846772106F0B1FA80B18820294618220AF09FF840B1D6
:201ECC00B6208DF856000DF156010122E02009F0FBFA0AF023F909F00FFC5846432106F0CD
:201EEC0099FA58B11020ADF84C0013A90220024609F0EAFA414608700AF010F909F0BEF964
:201F0C004846032128380160102703A87F1E40F804BBFBD1D348D44E5B4644F6206101273F
:201F2C0000681993B1FBF0F11691B6FBF0F01790A06C0F213A4608F021FA09F09FF99748D6
:201F4C000068606216980AF079FA98F80060EEB15846432106F05EFA28B9C0A009F0DFFD3B
:201F6C0008F032F814E007F085FF88F800000AF0D5F8B8F80210B8F804600806000C40EA63
:201F8C00212018903006000C40EA262A88F800701898A5211926414306FB0AF08613169825
:201FAC000914A1F128090AF049FA09F0A5FB16980AF044FA5846772106F02CFA38B1F72027
:201FCC000DF14E0106220AF019F80AF0A7F8C4F82890169826630AF031FA9DF84E109DF884
:201FEC004F009DF8506040EA01202A889DF85210000140EA26199DF85160B5F90A3041EA8A
:20200C0006209DF85360010141EA2611B5F90260C2EB2110C910A1EB420106FB01F2B5F9AA
:20202C0004104043061301FB06F0801300EBE22000EB800180314FEA212EE9884010A0F577
:20204C007A40821002FB02FC4FEA6C3202FB03F6B5F9083043435B1003EBE6034FF4004629
:20206C0006EBA343B5F90A60C4F82CE04B43DB137243B5F908601A9300FB06F35B104FF407
:20208C00004603EBE20306EBA3425143CE1335D0B5F90E10B5F910304FEAEC22484303FB41
:2020AC0002F1B5F90C30714A01EB4001180440F6354300EBA100001303FB192103FB101090
:2020CC00C10F1CBFB0FBF6F0400003D11A994000B0FBF1F0B5F91620B5F91460C1088308CB
:2020EC004943490B514306FB03F2B5F91260521302EB2132B11800EB211000E0606B199963
:20210C00199B64260DEB81010C31C4F83CB00A680860821AB0FBF6F0226203F101016063D2
:20212C0001F00F0119913DD5B0F57F7F3AD240F26631814234D8A0F26630962381B206FB7A
:20214C0001F0B0FBF3F0C0F164002AE0656D6F6E2E6300C04572726F7220696E697469612D
:20216C006C697A696E672073656E736F72730A00C00700208CE40000D0E40000400500003F
:20218C003C05000044050000ACE4000084050000A4E40000342F0020C42E002028500940B2
:2021AC003046E0633046A66A9EFBF0F1701800EBD0704010A06316980AF040F9A06C0F2137
:2021CC005A4608F0DBF8A06B61688142A8BFA17804DAA7702064542161703946A268824265
:2021EC0004DD2064A770742039466070606BE268824204D2A77020645021617039462269DE
:20220C00824204D92064A770702039466070206B6269824204D2A770206448216170394653
:20222C00A269824204D92064A770682039466070E06BE269824204DB012906D084F803B00C
:20224C0007E02064A77052206070E6780EB184F802B017980AF0F2F86AE6C04666616C73D4
:20226C006500C04680E4000060009203000050C32DE9F84F8046DD480122A0F130010A60E4
:20228C00D7490F68002FFCD0D74ED64AC02706F1040B1760DBF80010890804D23168090CFF
:2022AC0041F0F00100E07221E34AE44D4FF0000982F85412A5F1D407C0F80090D6F808A0C8
:2022CC003868C0F3046009F08BFE5246534600EB2270401C162805DA10F10A0FB8BF6FF0A2
:2022EC00090000E01520E649E64F00F01F0040F4F8500880386880083ABFE348C0F80090A9
:20230C0042F04062E149A5F13C04D00E970E80F0010000F00100086087F0010000F0010027
:20232C0088602068C0F38367C0F38F215FEA9A4022D243F3072000280BD542424846490842
:20234C0005D17F0806BF0127391C4FF6FF71521EF5D1002810DD4FF6FF72490041F00101A0
:20236C008A4207D27F0047F001070F2F92BF01210F27111C401EF0D141EA0741182008F018
:20238C00EBFA20682768C34CC0F3870140F2FF324B4607F0030041EA0021274688B22C21BD
:2023AC000090A7F1400007F001FCA5F110073868C0F30D011C2008F0CFFAB54957F8080C49
:2023CC00014000F07C400143142008F0C5FA57F80C1C01F47C000904090C0143102008F05F
:2023EC00BBFA57F8042CDBF80010C2F30350C2F30343490812D231680E0510EB267003D46E
:20240C001028A8BF0F2000E04846090413EB217303D4102BA8BF0F2300E04B4643EA001379
:20242C0002F47F4002F0FF01B8F1220F40EA034041EA000124BF02F0804211430C2008F067
:20244C008BFAB8F1220F32BF01202868C0F30070B8F1220F4FEA400040F0200084F8090123
:20246C0026BF2868C0F3407001208B4EB8F1200F40F0100084F8090138BF494606D33168E8
:20248C00C80C00F44070C1F384510143282008F063FAB8F1200F26BF3068C0F30150484667
:2024AC00B8F1220F4FEA400040F0600084F80C0126BF2868C0F3C0604846B8F1220F4FEABB
:2024CC00C00040F0800084F8010126BF2868C0F345504846B8F1200F4FEA800040F47C4036
:2024EC00A4F89C0138BF6D490AD3306801038A15920501F47C1100F00F00114341EA00310A
:20250C00082008F029FA2E464FF480002060A6F1D000816D40F20F226FF31F418A4213D983
:20252C0001680068C1F30367C0F3034007B17F1E072805D006280EBF0720801C00F00F0094
:20254C003D4947EA00100870CAF381477F1E02D07F1E28D023E03168880C20D24FF4804082
:20256C0020604F48D0F802204B0AC1F3033703F0800322F08F02134347EA0302C0F802208C
:20258C00D0F801300F0A67F30303C0F80130026801F0E70722F0E70247EA020102E04FF03B
:2025AC00004120460160DBF80000C0F3C0070FB94020A0624FF400703E4F206428684FF0FD
:2025CC004008C0F3C14040F0300084F8C800CAF38150A8B3401E0BD0401E28D0022127E0AD
:2025EC009402224300600C40AC3F005040100940012009F0E3F905460420294607F060F930
:20260C00042009F0DBF98542FAD12648056825F07F4008F017FC38461430006803680721B4
:20262C004FF06022280E98474FF4806020600321042007F045F90AE0026008408C13005015
:20264C000420012107F03CF9174808F0FBFB203E30681649164B47F6180500F03F0084F8F4
:20266C00CB0F3A460D8018681068C168022088471248114EC0F8008001213160BDE8F88F85
:20268C006E6208400000094094042A4300002043FCFCFC0040A00C409813005000803F404B
:2026AC000A600840A83F0050BD37860070B00C402C200940A00100109404604200600C4013
:2026CC002DE9F04F09AFADF13C0D0024DFF8F0B1DFF8F081DFF8F0A10890DFF8F0910B9320
:2026EC0038790A923F880C90FF200E9008780991022809D10846594640680E88008842F658
:20270C000215854200F0E480099806F0BFFC5946DFF878B20546A0A2002D0E880D953FD088
:20272C006D1E1FD058460168D6B199480068014216D0AA480068014204D14046006800882B
:20274C0001420DD0A84840F22927ADA605680097A44B0196A24F02941A883868A4A3A847FF
:20276C000A2072E14D465046002E4FF014090168079505F1040A3ED08548006801423AD084
:20278C0096480068014204D1404600680088014231D0A2484FF4097305680093ACA31BE022
:2027AC004D4650464FF028090168079505F1020A0EB37748006801421DD0884800680142DA
:2027CC0004D1404600680088014214D0934840F2162305680093A0A3019202930898039097
:2027EC000B9A049205970C987E4B06901A887C4B18687FA3A847B9452FDD0B9DED19A94553
:20280C001FDA58460168D6B161480068014216D072480068014204D14046006800880142F8
:20282C000DD071484FF40D768DA3056800966D4E01936B4B0294328818686DA3A8470D24F8
:20284C002AE009980A990B9AC068381804F085FFAAF800500D980E901EE058460168D6B1C8
:20286C004B480068014216D05C480068014204D140460068008801420DD05B4840F22F2644
:20288C0080A305680096574E0193554B02943288186857A3A84707240E98FF280ED00798FF
:2028AC00806858B106684EB10B980D9A0A9B3F18B8B20090089841F23011B0472046C4E059
:2028CC00D0E400004405000090E40000B817002050460068002E82462CD02D4800681AEABB
:2028EC00000F27D03D4800681AEA000F05D14046006800881AEA000F1CD00C98FE280CBFE6
:20290C0069A670A6099806F0C1FB444940F2FB130D6800936EA2019202900898039021468F
:20292C000496304B05912E4E06911A88306851462FA3A847002F73D10B98022856D10A9931
:20294C0048780D7805EB002535F0030022D10998C06806680898314608F070FF00280CBF4E
:20296C00201C807885425CD00898314608F066FF50B931464FF6FF7008F060FF002808BF36
:20298C0011244ED00899018085704AE08CE4000040050000802444E05772697465417474E6
:2029AC00724342203A20257320636F6E6E48616E646C6528256429206C656E2825642920B5
:2029CC006F666673657428256429206D6574686F64283078253032782900C0463C050000AA
:2029EC00ACE4000084050000A4E400000D2418E0646174615F736572766963652E6300C0C6
:202A0C0041747472696275746520776173206E6F7420666F756E642E00C046C0A8E400005E
:202A2C000B2448460830076874B96FB1786858B1099806F02BFB02460B980A9B00907D682E
:202A4C00089841F23011A847E0B20FB0BDE8F08F53747265616D00C0537472696E6700C08F
:202A6C00496E76616C69642076616C7565206C656E67746820776173207265636569766536
:202A8C00642E00C0416E20696E76616C6964206F666673657420776173207265717565735B
:202AAC007465642E00C046C02D20726573746F72696E6720626F6E646564207374617465E2
:202ACC0000C046C02D204F544120777269746500577269746541747472434220284343436C
:202AEC0044293A20706172616D3A20256420636F6E6E48616E646C653A202564202573005A
:202B0C002DE9F04F054695480E46ADF13C0D0FF2AC2C0088DFF850A2DFF85092DFF850B235
:202B2C00964907902F1C08909548DFF84882C468099242D07F1E21D08948079F0168002F3C
:202B4C0000F0088187480068014200F0038150460068014205D1484600680088014200F03A
:202B6C00F98085484FF49A778AA604680097434601965F4602951A88386875E027460C68A8
:202B8C0014230122089D0C93011D0D9210300B91002D0A903ED07348006804423AD0504614
:202BAC000068044204D1484600680088044231D04FF4987388A200211BE00C680025282349
:202BCC00811C0D95089F0C9324300B910A900FB36448006804421DD050460068044204D1B8
:202BEC00484600680088044214D040F225137CA20D99A84805680093CDF804C0029203964D
:202C0C00049105914346069159461A8808685DA32146A8470C98B04229DA5148089F016814
:202C2C00002F00F097804F480068014200F0928050460068014205D1484600680088014236
:202C4C0000F08880934840F24D170468009766A501950296002303930C9A049247460593A9
:202C6C005D4606933A88286846A3A04772E00A980999324604F071FD0D9D0B98002D06807A
:202C8C0068D00798214600282FD03648006801422BD050460068014204D14846006800880B
:202CAC00014222D07B4B40465D460288BE781C6828680FF2D00C002E08BF0FF2641E05D0E6
:202CCC00012E0CBF0FF2741E0FF2881E4FF4A273009365A601963B880293CDF80CE00025F9
:202CEC000495059563460695A047DDF82880002F30D0B8F1000F2DD0674D287800244FF64C
:202D0C00FF7A25E0A0003E18385A82451DD0B078D8B1624841460622C368994204D0521E99
:202D2C0000F11000F8D110E08146B078410805D3308801214A4604F03FFEB078800804D39B
:202D4C00308802214A4604F037FE2878641CE4B2A042D7DC0FB0BDE8F08FC046D0E40000EB
:202D6C008CE40000400500003C05000044050000ACE4000084050000A4E4000090E40000F3
:202D8C00B8170020646174615F736572766963652E6300C0536574506172616D6574657230
:202DAC003A20506172616D6574657220232564206E6F742076616C69642E00C05365745035
:202DCC006172616D65746572203A202573206C656E3A20256400C04653747265616D00C010
:202DEC00537472696E6700C04C656E677468206F75747369646520626F756E64733A204CC0
:202E0C00656E3A202564204D696E4C656E3A202564204D61784C656E3A2025642E00C0462E
:202E2C001B5B33336D4E6F74692F696E642064697361626C65641B5B306D00C04E6F746974
:202E4C006669636174696F6E20656E61626C656400C046C0496E6469636174696F6E2065E1
:202E6C006E61626C656400C0547279696E6720746F2073656E64206E6F74692F696E643A58
:202E8C0020636F6E6E48616E646C652025782C20257300C0A8E4000068110020041800204A
:202EAC002DE9FE4FB84C0F460646F80B80F04781B80880F0D480B54DDFF8D892DFF8E0B293
:202ECC00DFF8E882DFF8F4A22C68B80F67D2B0480678002E47D1380947D3AF4801264946E0
:202EEC00067000240C70204603F09BF9AB48FDF7FBF8AC492246584609F0DAF9AA480178B7
:202F0C0001291CD141460B78CBB9A94E306880B108F064FF2B68A8493668A64D0A68C01A84
:202F2C00000B82182860B2EBC61F28BF0C6007D20A60A4484FF0005108F00CFF2CE006703F
:202F4C00504640F609010180417B01F0F00141F0010141734480017B01F0F001017344604F
:202F6C00974E306018E0390914D2B80BC0F004819D48001D09F0A5F9061C08D0706830B16C
:202F8C007468F068B6F91C1098A20CCAA04727F40057F1E00021017027F00807ECE0ECB1BB
:202FAC00042008F00BFDC8B108F018FF864A29681060814226BF401A401E401A000BF06073
:202FCC00F06800F58D70F060F16840F6C410884203D340F2EE228A4200D9F0600024D6F81F
:202FEC0018C02C60BCF1000F10D050460D30007810F00F0F0AD1708C40F60901814205D1AC
:20300C007CA20CCA30466FF48071E0476F495846224609F04DF94546287850B10220ADF8CF
:20302C000000684608F000FA2C70BDF808006849088049460120674A674B087010781C70B3
:20304C00401C1070192008F071FF756925B16BA20CCA30462146A84727F000578CE004F1B5
:20306C000C0A504609F02DF9061C5FD007F06EFB7368B2690025B561E3B1F37F42F002025B
:20308C004FF00009904603F007035B1E07D05B1E03D09B1E06D15BA002E05CA000E05DA027
:2030AC0090E800037268F068B6F91C104B4694464246E04709F0BEF98046B4F91200401CD1
:2030CC006FF31F306082E0681F30017801F07F010170504608F0C2FD404609F0A7F9F0689B
:2030EC00B0F99410B4F9122091421FD13B49097801291BD090F896409CB904688CB13849DE
:20310C0009680968B1F1FF3F10D0364909687030B4FBF1F109F086F9F068703009F07EF900
:20312C0004E080F89650284605F07CFD504609F0C8F827F0020708B147F002071CE009F008
:20314C0079F901462046083009F0BBF80646B469084609F06BF9A0080CD25EB17068B169C5
:20316C00A143B16130B17568F068B6F91C1000232246A84727F480471FB11248394608F05F
:20318C00E9FDBDE8FE8FC046F02E0020542F0020792F0020752F0020732F00200985000048
:2031AC008C2E00202DB60000772F0020722F0020502F00205C2F00204C2F0020042F002087
:2031CC0000100440882D0020582F002011600000502E00207B2F0020742F0020821C0020B9
:2031EC00602F002080E40000F02E0020000000002000000000000000000000020000000050
:20320C00000000040000000000000010000000000000004000000000000000202DE9F04FD9
:20322C0009AFADF13C0D08900A92388809911E46ADF81800101C08BF002000F08481002705
:20324C0000F101094FF0FF3A4FF0010BB8466CE1252940F063811078521C0A922D2818BF39
:20326C00ADF8068005D15846551CADF8060010780A9530281CBF4246434605D10A99087823
:20328C005A465B46491C0A912A28CDF80080554616D1306804930A99CDF808A0C01C4B1C46
:2032AC0020F00300001D306050F8044C0A93002C0878009418D5ADF806B06442009413E058
:2032CC0044460AE0610001EBC40140180A99A0F1300408780094491C0A91302801DB3A28F2
:2032EC00F0DBCDF808A004932E282BD10A9908782A2801F101010A9111D13068CDF80880D6
:20330C00C01C20F00300001D306050F8045C002D48BF454608782B46491C0A9111E0454631
:20332C0043460AE0690001EBC50140180A99A0F1300508782B46491C0A91302801DB3A28AB
:20334C00F0DB02930AB1224604926C2804D04C2818BFADF8048005D10A990878ADF804B01A
:20336C00491C0A910BA9CDF80C800FAB07916428059300F08B80692800F08880BDF818C0B5
:20338C00752872D078286ED06F286AD0702850D063283DD073281ED009980A990128A1F1BB
:2033AC0001010A9115D96B490C68B5F1FF3F03D0A84288BF6D1C00D8099D029508A80AA965
:2033CC0032466B46A047C7190A99039801F1010974E040462AE030680A99C01C20F00300A9
:2033EC00001D306050F8040CBCF1000F01F10109014608B955A00146079108F017FD039089
:20340C00B5F1FF3F5BD0A842C4BF281C039056E03068C01C20F00300001D306010F8040CCB
:20342C005D468DF82C000A990395584601F1010945E0082035680490E81C20F00300001DA5
:20344C00306050F8041C082210230FA805F074F9401E0790402101700A99079801F10109ED
:20346C0029E0082302E0102300E00A230A99306801F10109C01C20F00300001D306050F8CF
:20348C00041CAA42BCBF2A1C049210E00A99306801F10109C01C20F00300001D306050F8B2
:2034AC00041CAA42BCBF2A1C04926FF009030FA805F042F90790059D281A0390009C241A63
:2034CC00BDF8065000945DB906E008A8202109AA07F06CFF009C7F1C641E0094F5D503988D
:2034EC000546401E039075B9BDF80600E8B10098401E009019D408A8202109AA07F056FF9F
:20350C0000987F1CF4E70798411C0791017809AA08A807F04BFF03987F1CE1E708A809AA7F
:20352C0007F044FF7F1C09F101094A460A9812F8011C401C00290A907FF48AAE089808B12A
:20354C004146017038460FB0BDE8F08F286E756C6C2900C0B8E400002DE9F04F09AFADF1F3
:20356C003C0D08900B9397F804B00A923D880991084605F0B7FDAF49DFF8C0A2DFF8C09231
:20358C00DFF8C082B54B00240646FF2082A2002E0D900F88B048AF490C963DD0761E1FD0CF
:2035AC00A5480168D7B150460068014216D048460068014204D140460068008801420DD056
:2035CC00A34840F25A576DA6056800979F4B01969D4F02941A88386864A3A8470A20C2E0F3
:2035EC0000F1020C002F07900968CDF838C039D050460068014235D048460068014204D16F
:20360C0040460068008801422CD0184640F2B6430668009371A316E00E90096807900FB3ED
:20362C005046006801421DD048460068014204D1404600680088014214D0184640F2A94329
:20364C000668009367A301920293089803900B9A049205957D4BCDF818B01A887A4B1868E7
:20366C0042A3B047142D4CDA0B9E60A27619142E28DCCEB9BBF1180F18BFBBF1120F13D199
:20368C0050466D4900680968002F38D0014236D048460068014204D14046006800880142B2
:2036AC002DD040F26E561FE009980A990B9AC068281804F052F8002E42D00C980D900E9F4F
:2036CC003E803DE05C480168CFB150460068014215D048460068014204D1404600680088CC
:2036EC0001420CD040F26556594807680096574B0192554E02941A8830681CA3B8470D2475
:20370C001EE04D480168D7B150460068014216D048460068014204D140460068008801422B
:20372C000DD04B484FF4AC6639A307680096474E0193454B0294328818680CA3B847072475
:20374C000D98FF280ED00798406858B107684FB10B980C9A0A9B2D18A8B20090089841F204
:20376C005011B84720460FB0BDE8F08F656E76736572766963652E6300C046C04174747268
:20378C00696275746520776173206E6F7420666F756E642E00C046C05772697465417474C4
:2037AC00724342203A20257320636F6E6E48616E646C6528256429206C656E2825642920A7
:2037CC006F666673657428256429206D6574686F64283078253032782900C046524553559E
:2037EC004C5400C0434F4D4D414E4400496E76616C69642076616C7565206C656E677468B8
:20380C00207761732072656365697665642E00C0416E20696E76616C6964206F66667365F3
:20382C007420776173207265717565737465642E00C046C0D0E400008CE40000400500004E
:20384C003C05000044050000ACE4000084050000A4E4000090E40000F8180020A8E4000001
:20386C002DE9F04FA549A64EA64DA74CDFF89CB2DFF89CA2DFF89C92DFF89C820F88401EF6
:20388C00ADF1240D00F09080401E75D0801E61D0401E4DD0401E2ED0401E17D0401E40F031
:2038AC00C9803168002F00F0C5802868014200F0C1802068014205D15A461068008801422E
:2038CC0000F0B88040F2553060A766E03168002F00F0B0802868014200F0AC80206801420E
:2038EC0005D15A4610680088014200F0A38040F2493058A751E040F2153004A902F0D8F92E
:20390C0004A805F01BFF3168002F00F093802A68114200F08F802268114205D15A46126864
:20392C001288114200F086804FF4517750A676E03168002F7ED0286801427BD02068014242
:20394C0004D15A4610680088014273D040F2513051A722E03168002F6CD02868014269D0A3
:20396C002068014204D15A4610680088014261D040F24D304EA710E03168002F5AD0286871
:20398C00014257D02068014204D15A461068008801424FD040F23A304AA7424614680090EE
:2039AC000197002602963FE04FF4417006A902F07FF99DF819308DF8113000218DF814100B
:2039CC009DF81A208DF813109DF818008DF812209DF81D308DF810009DF81C208DF81730EC
:2039EC0004A98DF816209DF81B304C4A8DF81530086810604B68536006A805F09FFE3168F4
:203A0C00C7B12A68114215D02268114204D15A461268128811420DD040F235372CA64246CA
:203A2C00146800970196029053464D4618682A8802A3A04709B0BDE8F08FC04670726F6AB6
:203A4C006563745F7A65726F2E6300C04572726F7200C046436F6E6E656374656420616E1C
:203A6C0064206164766572746973696E6700C046436F6E6E65637465642E20506565722083
:203A8C00616464726573733A201B5B33326D25731B5B306D00C046C0436F6E6E65637469EE
:203AAC006F6E2074696D6564206F757400C046C0446973636F6E6E6563746564202F204921
:203ACC00646C65004164766572746973696E670047415020697320737461727465642E20EC
:203AEC004F757220616464726573733A201B5B33326D25731B5B306D00C046C0D0E40000B7
:203B0C0090E40000400500003C05000044050000ACE4000084050000A4E40000E31400209E
:203B2C00F8B5A0F2013517460E46022D40F214818A4A8B498B4B2D1F0F2D04D9143D4AD00F
:203B4C00AD1E1CD011E0DFE815F0C300BC00F400E400B300AB000701A2009A0010001000CC
:203B6C009200880079006F006300282880F2F480022E40F0F180398806F038FEF8BD012EFC
:203B8C0040F0EA8015462879012800F0E58051793878507181B9002800F0DE8090780128E9
:203BAC0000F0A980042800F0A680062800F0A380052800F0A080F8BD3878002840F0CC8017
:203BCC009078032800F0A280072800F09F80052800F09C80F8BD012E40F0BE8038780128F2
:203BEC0040F0BA80154605F1F00008F08FF9002840F0B2802C46002004F13E0104F066FAEA
:203C0C00002840F0A98004F1CC0008F05CFBF8BD022E40F0A18038880A28C0F29D80B0F56B
:203C2C00486F00F3998015E0022E40F095803888B0F5FA7F80F290800880F8BD022E40F04E
:203C4C008B8038880628C0F28780B0F5486F00F383801946891C0D4638E0022E7CD13888A8
:203C6C00062879DBB0F5486F76DC1946F3E7012E72D1387806286FDA891F0D460EE0012E1E
:203C8C006AD13878042867DA15460B3506E0012E62D1387808285FDA15460A352870F8BDDD
:203CAC00012E59D13878042856DA1546093506E0012E51D1387804284EDC154608352946B6
:203CCC00DBE7022E48D13888154612352946B3E7012E41D11546687901283DD01179387875
:203CEC00107161B9002837D09078012803D0042818BF052830D1012007F0ECFFF8BD387851
:203D0C0050BB9078022818BF052825D108F0CEF8F8BD154605F1870400211F22204604F055
:203D2C0055FA39463246204603F017FD0020EE710EE0154605F1680400211F22204604F0DE
:203D4C0045FA39463246204603F007FD0120AE713146224605F0A2FCF8BDC04668110020BE
:203D6C00AC110020A81100202DE9F04F804609AF0846ADF1340D0A9397F808B00992B988C1
:203D8C0008903F880B9105F081F906467B497A48DFF8F091DFF8F0A1804ADFF804C2002490
:203DAC000FF2641E002E058888884988079538D0761E1FD072480168D5B1484600680142CF
:203DCC0016D050460068014204D170480068008801420DD070484FF4E57744A605680097CE
:203DEC006C4B01966A4F02941A8838683BA3A8470A206FE005461046079E0168002E37D0AE
:203E0C0048460068014233D050460068014204D15E480068008801422AD040F2C51349A27C
:203E2C0014E00D461046079E01680EB34846006801421DD050460068014204D153480068CB
:203E4C000088014214D04FF4DD7340A2604606680093CDF804E00292CDF80C800497CDF89D
:203E6C0014B04C4B06941A88494B18681BA3B047BD420EDB0B98E91B8142D4BF8AB2021C97
:203E8C000A9802800898C0683918099803F065FC1FE03B48079F0168D7B148460068014292
:203EAC0016D050460068014204D138480068008801420DD038484FF4E87726A60568009778
:203ECC00344B0196324F02941A88386803A3A847072420460DB0BDE8F08FC04664617461C0
:203EEC005F736572766963652E6300C041747472696275746520776173206E6F7420666F90
:203F0C00756E642E00C046C052656164417474724342203A20257320636F6E6E48616E6463
:203F2C006C653A202564206F66667365743A202564206D6574686F643A2030782530327895
:203F4C0000C046C053747265616D00C0537472696E6700C0416E20696E76616C6964206FE7
:203F6C00666673657420776173207265717565737465642E00C046C0D0E40000B817002029
:203F8C008CE40000400500003C05000044050000ACE4000084050000A4E4000090E40000C1
:203FAC00A8E400002DE9F04F804609AF0846ADF1340D0A9397F808B00992B98808903F884A
:203FCC000B9105F08FF806467B497A48DFF8F091DFF8F0A1804ADFF804C200240FF2641E1D
:203FEC00002E058848880988079538D0761E1FD072480168D5B148460068014216D0504614
:20400C000068014204D170480068008801420DD0704840F26E4744A6056800976C4B019671
:20402C006A4F02941A8838683BA3A8470A206FE005461046079E0168002E37D048460068C3
:20404C00014233D050460068014204D15E480068008801422AD040F2EE3349A214E00D46A0
:20406C001046079E01680EB34846006801421DD050460068014204D1534800680088014205
:20408C0014D04FF4797340A2604606680093CDF804E00292CDF80C800497CDF814B04C4B2F
:2040AC0006941A88494B18681BA3B047BD420EDB0B98E91B8142D4BF8AB2021C0A9802808C
:2040CC000898C0683918099803F047FB1FE03B48079F0168D7B148460068014216D0504617
:2040EC000068014204D138480068008801420DD0384840F2744726A605680097344B019651
:20410C00324F02941A88386803A3A847072420460DB0BDE8F08FC046656E767365727669BB
:20412C0063652E6300C046C041747472696275746520776173206E6F7420666F756E642E5A
:20414C0000C046C052656164417474724342203A20257320636F6E6E48616E646C653A206B
:20416C002564206F66667365743A202564206D6574686F643A2030782530327800C046C0B8
:20418C00524553554C5400C0434F4D4D414E4400416E20696E76616C6964206F666673658C
:2041AC007420776173207265717565737465642E00C046C0D0E40000F81800208CE40000DA
:2041CC00400500003C05000044050000ACE4000084050000A4E4000090E40000A8E4000063
:2041EC002DE9F04F0128ADF1140D40F0F280DFF81492D9F8DC00012840F0E9800220C9F805
:20420C00DC0008F007F90290012005F0A7FD20B101210646C9F8DC10D5E008F0F7F8039057
:20422C006E484FF00008C0F80080012007F0C6FB012818BFCDF8008004D1404605F008F9CE
:20424C000120009066486E4CC0F800801934D4F8FF0F112007F056FF00280CBF46460126B7
:20426C00102007F04FFF08B146F002060F2007F049FF08B146F004060B2007F043FF30B11A
:20428C00584800685849006B0246088890470A2007F038FF0028404618BF01204FF0805B37
:2042AC000BF5DC7528B128685049006B0246088890474F480127076028688069014646F069
:2042CC00200088474B48076007F016FF00F001010191400815D2484807F089FE8246BAF1A9
:2042EC00040FF8D0BAF1010F06D1DBF8D801406802464148032190474049086820F0030019
:20430C000860404600F080F82868D4F8FF1F806B8047019801280ED0BAF1010F06D1DBF80A
:20432C00D801406802463448394690473349086840F0030008602A480760286840690146F6
:20434C00304688470B2007F0DDFE28B128682649C06A0246088890470A2007F0D3FE28B193
:20436C0028682249C06A024608889047204807600322C9F8DC201F4BC3F800802868406BCC
:20438C000146304688470128F8D1042005F0E6FC124807601A48D4F8FF1F01688909FCD3C1
:2043AC000098012802D1384605F052F807F098FE082005F0D3FC06460398C9F8DC7008F03B
:2043CC0021F804F07DFD029808F018F802E0042600E00126304605B0BDE8F08F0C400940B1
:2043EC0000022243B8010010D2DF0000CEDF0000282008608001044300400340242208409A
:20440C0014100940A81600202DE9F84FDFF8E8B10746ABF13500DFF8D4910068800880F0BE
:20442C00D68006F0EDFF064677480830D0F8008000254FEA28725FEA985002F101020AD2B2
:20444C00C6F13E0016F10A0F4FEAE000D8BF08208242B8BF021C624BD3F87C01C0F30460FE
:20446C0007F0BEFD04461868C0F3044007F0B8FD12198246162A05DA12F10A0FB8BF6FF00D
:20448C00090200E01522574B574802F01F0141F4F8511980006810F0030F18BF0125C00845
:2044AC0028BF45F002050FB145F00405494691F90700301A052804DA8879A84208BF888898
:2044CC0065D0DFF82CE10F2EA6F10F0C25DB0CEB0610A0F1F00C4FEA2C27072F88BF0727F7
:2044EC003C46062C88BF06245EF82400042303EB84037446E3581B1A03F0FF04E80824BF82
:20450C00C3F307200444A80824BFC3F307400444680828BF04EB136401E0002427465EF80D
:20452C0027E0E8080EF0FF0324BFCEF307200344A80824BFCEF307400344680828BF03EB3F
:20454C001E63A4B2ACEB0727AAEB02007C43002804F1800403EB1423D8BF0120342208F091
:20456C00FF0742437A43B2FBF3F04FF6FF72824238BF101C802E80B2888005DA16F1800F5D
:20458C00B8BF6FF07F0600E07F26CE718D71194A12681F280A604FF0000208D340F2FF1106
:2045AC00814206D24008521C8142FBD301E01F208880124F0F38000942EAC00247EA020013
:2045CC00CBF8FB0F0026CBF8FF6FBDE8F88F0D4F0B4E494608203760891D0870BDE8F88F32
:2045EC003C1100506E620840242208403C2F00209C130050082009403500094000E7A480E8
:20460C0030100940FDFDA400AC3F00502DE9F0411C4615468C4208BF854282BF0023002246
:20462C00E5E0002C08BF002D0AD100290EBF00286FF000006FF0000100F0E1F8BDE8F081F2
:20464C005FF000085FF0000E002C08BF8D429CBF2C1C0025070C47EA01470E0CB44208BFAD
:20466C00BD429EBF5FEA044444EA15445FEA0545070A47EA01670E0AB44208BFBD429EBF4C
:20468C005FEA042444EA15645FEA0525470847EAC1774E08B44208BFBD4200F29380870825
:2046AC0047EA81778E08B44208BFBD427CD8C70847EA4177CE08B44208BFBD4266D8070987
:2046CC0047EA01770E09B44208BFBD4250D8470947EAC1674E09B44208BFBD423AD88709CC
:2046EC0047EA81678E09B44208BFBD4224D8C70947EA4167CE09B44208BFBD420DD8E6013E
:20470C0046EA5566EF01B14208BFB84201D3C01BB14158EB08085EEB0E0EA60146EA9566D3
:20472C004FEA8517B14208BFB84201D3C01BB14158EB08084EEB0E0E660146EAD5666F0159
:20474C00B14208BFB84201D3C01BB14158EB08084EEB0E0E260146EA15762F01B14208BF84
:20476C00B84201D3C01BB14158EB08085EEB0E0EE60046EA5576EF00B14208BFB84201D382
:20478C00C01BB14158EB08084EEB0E0EA60046EA9576AF00B14208BFB84201D3C01BB141B3
:2047AC0058EB08084EEB0E0E660046EAD5766F00B14208BFB84201D3C01BB14158EB08084D
:2047CC005EEB0E0EA14208BFA84201D3401BA14158EB08085EEB0E0EA34208BFAA423EBF76
:2047EC002D0A45EA0465240A89D3734642461E4617460B46024631463846BDE8F0817047F7
:20480C002DE9F843814607F065FC002100B901216B4E30680028FCD06C4D01242D1DEF6A5A
:20482C00346009B107F05CFCDFF89881C7F3072008F1BC01086007F04DFC002100B921465F
:20484C0030680028FCD02F68346009B107F048FCC7F38440C8F8C00007F03CFC014600200C
:20486C0001B92046014630680028FCD0ED69346009B107F035FCC5F38120C8F8D000B9F5D6
:20488C00C061C8F8B81000F0968098F8D80068B9C8F8D410D8F8C000C8F8C800D8F8BC701C
:2048AC00C8F8C470D8F8D060C8F8CC60D8F8D410D8F8BC60002954BF02206FF00100454623
:2048CC0005F1C8031A6801EB41014018411000EB917002EBA0021A60D5F8C810C5F8C46037
:2048EC0000291CDD1E293DDDD5F8CC0030B93429B4BF15391E21C5F8C81025E02A29BABFE4
:20490C00D5F8C8000B381E20C5F8C800D5F8C4003F28B4BF401C3F20C5F8C4001FE0D5F87D
:20492C00CC00032812D011F10B0FC6BFD5F8C8000B30201CC5F8C800D5F8C4000028CCBF1C
:20494C00401E0020C5F8C400032009E011F1150FC6BFD5F8C8001530201CC5F8C8000020DA
:20496C00C5F8CC00B5F8C400174E30214FF47F4208230090304605F019F9009404214FF443
:20498C0000321123304605F011F9B5F8C80004214FF4F80212230090304605F007F9B5F87C
:2049AC00CC0020214FF440620A230090304605F0FDF8BDE8F883002088F8D800BDE8F88324
:2049CC0000800C40A816002000A00C4000A00C402DE9FC416F4C204607F073FC15460E46C0
:2049EC00009007F027FD05F001078046B6F1FF3F0DD1606820B9B4F91200401C06B202E024
:204A0C006068B0F91C6064490020C91C0870304606F04AFC0326002800F0A48061688142D0
:204A2C0070D0009FDFF848C1B84231D03FB100990A68904209D0096800290091F7D1832E66
:204A4C0044D0404607F0F2FC40E0604606F03AFF00990868AA0803D202680B4601461A60CA
:204A6C0000220A60009078B10C340146C87F40F00400C877684607F0F1F80146204605F074
:204A8C00D3FF00980028F0D1404607F0CFFC1CE0604606F017FFA8083ABF20680068002008
:204AAC002060404607F0C2FC0C340099C87F40F00400C877684607F0D1F80146204605F08C
:204ACC00B3FF009808B1A808EFD2832629482C4A007890B928480078012846D02748FBF77D
:204AEC0003FB0221104607F035F92648007801283BD02548FBF7F8FA37E01046022107F01C
:204B0C0029F932E0A90803D32168009100262660C27F0121B9401143C17707F077FC06466A
:204B2C00002F14BF19481A4806F07EFC404607F07DFCA80811D3009878B10C340146C87F1B
:204B4C0040F00400C877684607F088F80146204605F06AFF00980028F0D1304607F052FC6A
:204B6C00832602E0404607F061FC3046BDE8FC81F02D0020742F0020732F0020AD2E00008F
:204B8C00882D0020752F0020A16B00000100020401000104F02E0020502E00202DE9F04F26
:204BAC00ADF1840D209001F013F904F0DBFF0024012804D107F022F8022808BF0124594954
:204BCC000868C0F38150012805D151F80C1C0120090E884004435448007806F0EBFCDFF856
:204BEC004C81DFF84CA1C8F8000030B15246FF2107467F1E02F8011BFBD1209909680025A4
:204C0C0001F0FF02FE2A1BD0DDF880C052462B46012701F0FF06FF2E0BD0B04203D907FA70
:204C2C0006F6344201D0022079E001F0FF01354353545CF8041F5B1C01F0FF06FE2EEAD1CF
:204C4C00092002F0E7F83B49209824220823086001A8002107F0CEFB4FF0010901AA3E4835
:204C6C008DF81C90494607F0C1FBD8F800303BB33A4E00274FF0040BBA4609FA07F004428A
:204C8C0018D1054204BF07F0FF0141F4C04104D027482099C05D51F82010274802F066FB94
:204CAC00F8B24FF0FF3106F097FED8F80030C6F800A001E0C6F800B07F1C361D9F42DCD319
:204CCC000AA800213022082307F08CFB1B4D1D4A2878002410210AAB12901948009407F0F3
:204CEC007DFB16A828220823214607F073FB686816AA16491C9014481D94234607F066FBC8
:204D0C00134A52F80D0C494620F4F85040F4005042F80D0C0F4BC2F8FF1F2046196021B023
:204D2C00BDE8F08FB43F00507A2F00205C280020142E0020682F0020007FC76754E4000095
:204D4C00542E002001BA0000542D0020499C00000D30094008000940702E0020882C0020FB
:204D6C002DE9F04F0F466049DFF88481DFF88491DFF884B1DFF88CA1634C0FF2081CADF18A
:204D8C00240D0E8859490792D0B1401E3FD108460168A41C002E04F10600089037D0404651
:204DAC000068014233D048460068014204D158460068008801422AD04FF4237338A215E0B8
:204DCC00084604F11C050168089506B34046006801421CD048460068014204D15846006873
:204DEC000088014213D04FF421732FA2504605680093CDF804C002920397002304930593B2
:204E0C0006933F4B1A883D4B18681AA3A847142F00DC2FBB40463D490068096836B30142F3
:204E2C0024D048460068014204D158460068008801421BD050464FF43F76046800961CA557
:204E4C0001950123029714220393002604922C4D05962A4F06962A88386806A3A04705E07B
:204E6C00089807993A4602F078FC278009B0BDE8F08FC046656E76736572766963652E63AB
:204E8C0000C046C0536574506172616D65746572203A202573206C656E3A20256400C04619
:204EAC004D415854454D50004D494E54454D50004C656E677468206F7574736964652062AF
:204ECC006F756E64733A204C656E3A202564204D696E4C656E3A202564204D61784C656E96
:204EEC003A2025642E00C046D0E4000090E40000400500003C05000044050000ACE4000008
:204F0C0084050000A8E40000F81800208CE400002DE9F84F9A4693460D46044607F08AFAA2
:204F2C00DFF85C810AAFB8F91220B8F91010009040F6F870891A0840082880F29280B8F9C6
:204F4C001000401C6FF31F30A8F81000B8F9109006F064FC064604F1700006F0B3FCB56066
:204F6C0086F81EB0C6F804A0F460A6F81C9097E80C0051A003C800251040F577D8F80020C1
:204F8C0006F11007194087E80300002A5CD14046314605F049FD00285BD0A4F894904448FE
:204FAC00F17F0778DFF8DCA041F08001F17784F8965067B151460F784FB1344A3449324B79
:204FCC000570012015700A781870521C0A70009807F02CFAD8F8040000284ED151460878D1
:204FEC0000282DD12B480078012846D007F022FA054629480078F8B9B06804F053FA284B91
:20500C002C4A26491B681268086038B9284607F00DFA2448042106F09DFE2EE0D068096804
:20502C00214C091AB1FBF3F1204607F0FBF9204607F0F4F928461EE01C4901200870F9E75F
:20504C00192006F073FF18E04046314605F0ECFC50B9B8F9100000F6FF706FF31F30A8F851
:20506C0010006FF0010905E0A4F89490F07F40F08000F077009807F0D9F94846BDE8F88F65
:20508C00F02E0020752F0020792F0020722F00207B2F0020742F0020732F0020502F00208B
:2050AC0080E40000882D0020F02D0020762F0020782F0020602F0020F1EFFF9F2000000095
:2050CC002DE9F04F694CA068ADF1440D002800F09D80DFF890914FF00A0B4FF0010A4FF0B9
:2050EC0000088FE007F0A6F921785F4BCA0002EB41129A18B2E8E01007ABA3E8E010E0CA37
:20510C00E0C364CA4F1C07F01F0183E8640004F10C05627821708A4208BF84F802A007F048
:20512C0085F9BDF82000002808BF2E1C09D00346A62138A2284606F0FFFC284606F076FEDD
:20514C002E18079FB8B206F089FB42A20CCA01F0E7F842A20CCA01F0E3F804F023FEA91B8A
:20516C0000902EA23B0CA631304606F0E5FC284606F05CFE2A18A0682946521B07F02FF856
:20518C00BDF82200E0B107F01DF9B9F8007037B909990A9F0346009124A2019720E00A9957
:2051AC0000910B9F01970C9E02960D9B03930E9A04920F9F0597109E0696099B02460FE0E3
:2051CC000B9800900C9F01970D9E02960E9B03930F9A0492CDF81480CDF818800A9B099A8E
:2051EC002846A62106F0A8FC284606F01FFE2A180D2002F8010B02F801BBA0682946521B44
:20520C0006F0EDFFA07800283FF46CAF11B0BDE8F08FC04623253036752000C05B20256420
:20522C002E25303375205D2000C046C07B6576743A20666D743D25702C20617267733D5B06
:20524C00307825782C2030782578202E2E2E5D7D00C046C0000000000000F03E00000000F4
:20526C0000408F408A050000C0020020080200202DE9DF4F6548DFF88CC1DFF874B1DFF890
:20528C0074A1DFF87491DFF87481DFF874E1078856480E1C32A313D10168002F5DD05846A6
:2052AC000068014259D050460068014204D1484600680088014250D040F2B3672CA62DE0EC
:2052CC00012E17D0022E48D1002A46D10168002F43D05846006801423FD0504600680142DE
:2052EC0004D1484600680088014236D040F2C46723A613E0A2B90168002F2ED058460068F6
:20530C0001422AD050460068014204D1484600680088014221D040F2B96725A6002212E04B
:20532C0039480168CFB158460068014215D050460068014204D148460068008801420CD016
:20534C0040F2BD6722A660460468009701967746464602923A883068A0470090BDE8DF8F22
:20536C0070726F6A6563745F7A65726F2E6300C050616972696E67207374617274656400D9
:20538C0052652D65737461626C69736865642070616972696E672066726F6D2073746F72CF
:2053AC00656420626F6E6420696E666F2E00C04650616972696E6720636F6D706C65746512
:2053CC0064207375636365737366756C6C792E0050616972696E67206661696C65642E204D
:2053EC004572726F723A20253032780090E40000400500003C05000044050000ACE400006B
:20540C0084050000A4E400008CE40000D0E400002DE9F0435A4E0024B51CADF1840D2C709A
:20542C0005F098F83C22082303A8214606F0C6FF4FF4007806F16409322705F5817548468F
:20544C005049CDF82C8003AA0A952346079706F0B1FF06F144053C22082312A82146C5F896
:20546C00009006F0ABFF484905F5307512AACDF868802346199506F1B400169706F09AFF59
:20548C0006F14C0006F1580102F04CFAB06408BB3E483F4F01683888D0B13E48006801426F
:2054AC0016D03D480068014204D13C480068008801420DD03C4840F249270DA60568009784
:2054CC00384B0196364F02941A88386806A3A84706F0C0FF0FA006F022FB04F075FD06F0DE
:2054EC0065FF21B0BDE8F083656D6F6E2E6300C04572726F7220696E697469616C697A69F3
:20550C006E6720626F617264204C45442070696E7300C0465374617274696E672074686500
:20552C00206578616D706C650A53797374656D2070726F76696465722069732073657420B1
:20554C00746F205379734D696E2E2048616C74207468652074617267657420746F207669F8
:20556C00657720616E79205379734D696E20636F6E74656E747320696E20524F562E0A0084
:20558C00C007002041710000211E00008CE40000D0E40000400500003C0500004405000034
:2055AC00ACE4000084050000A4E400002DE9F0438046D8F80460D8F808700C46ADF1340D82
:2055CC0006F038FF3178012903D106F02FFF0020A3E04FF0010986F8009006F027FF207819
:2055EC0070706078B07060687060A068B060E068F06020693061207D3075607D7075A07D44
:20560C00B075A069B061207F3077607F00257077A07F35623563102186F83C10B0772C462C
:20562C0074627463B462B46386F82C4086F82D4086F83D40786801F0EDFB404601F052FC36
:20564C00404602F0B3FB78B935480068C068014638688847786801F009FB06F0EBFE3470CC
:20566C0006F0E4FEA04657E001A821463022082306F0B8FECDF818803A7B09920095294A3B
:20568C00B96806F1680001AB06F0A8FE01A828220823214606F09EFE396907912249CDF8B5
:2056AC00148006F1840001AA234606F08FFE01A824220823214606F09DFEB0788DF81C90CD
:2056CC0038B906F1B800214601AA06F08FFE17483061707838B906F1D400214601AA06F0ED
:2056EC0085FE1348F06001A821462422082306F0ADFE0694ADF8144006F1F0000D49CDF8B9
:20570C001C800A2201AB06F04DFE0B4A06F154000421434605F0B0FE40460DB0BDE8F0837C
:20572C00D0010010E96800001999000043C200003BC20000597A000049BF00002DE9FC4149
:20574C005E4C574D574EDFF860815A4F94F8E410481E0B2861D8DFE800F07B2C430623438A
:20576C00062343067664042907D001220A2945F8212C14BF0220032004E02021012045F852
:20578C00211C024684F8E200002045F8390C0827C5F8FF7FC5F8F37F45F8392CBDE8FC811B
:2057AC00052914BF09200620002584F8E400356070E094F8E1700120383D002FC5F81B00A9
:2057CC0004BF0620002102D00021F160032084F8E400032045F8010C31603068800859D2A3
:2057EC0094F8E400012503280DD00021404660220523009104F0DAF994F8E400062814BFE5
:20580C000A200720D1E702200090002160220523404604F0CBF90420C7E706F0BFFDBDE88F
:20582C00FC812249002622480E60012505600E2001F01CFA022005F04DFB84F8E45084F82B
:20584C00E360BDE8FC81002038600C2578601FE01948006800680146202088472C3D41F6F0
:20586C001D560F2000214FF4C072072345F8010C4046C5F803600225009504F097F9404604
:20588C0000214FF4C072072304F024FC0120386084F8E45004F1780006F0C0FDBDE8FC817D
:2058AC0039400C4038600C4000A00C402C500C4004800C4034600C40A0010010A816002040
:2058CC002DE9F04F5D4CE7680346ADF11C0D002F68D05148DFF848A1DFF84891DFF848814F
:2058EC00DFF848B1DFF848C1DFF848E106882FA23BBB4A490968002E4ED050460068014206
:20590C004AD048460068014204D1404600680088014241D0704640F25D660568009627A311
:20592C00019338790290A078039000260496634605965F4606961E88386813463246A8478E
:20594C002AE03D48016816B35046006801421ED048460068014204D1404600680088014284
:20596C0015D0704640F26266056800961EA6019638790290039300260496674605965B46A6
:20598C00069618683E8813463246A847E768397907F1080006F0DEF8E06806F0FFF8002037
:2059AC00E060A07007B0BDE8F08FC04670726F6A6563745F7A65726F2E6300C053656E74A9
:2059CC00206D6573736167652077697468206F70636F6465203078253032782E2041747402
:2059EC00656D70742025640047617665207570206D6573736167652077697468206F706371
:205A0C006F6465203078253032782E205374617475733A20256400C0D0E4000090E40000DE
:205A2C00400500003C05000044050000ACE4000084050000A8E400008CE40000C40C002086
:205A4C00F8B5414C201D0368B3F1FF3F08BF002304F088F8002876D13C4E20683468070FE5
:205A6C0004F0FF04802C28BF002404F07BF84FF0FF3578B1401E07D0401E012802D9801E34
:205A8C0013D014E08FB112E0381C5CD0801E0ED114340BE03846401E55D0801E53D0001FE0
:205AAC0051D0401E03D1163400E00A3465B2162D49DB27482749002501270560264E0F602D
:205ACC00264C376020680028FCD1274A161D2449244F306820F0030001433868C0080CD27B
:205AEC00106810F0030F0AD041F003003060106800F003000328FAD101E041F001011B489A
:205B0C003160006820B11A4800681846FCF7B0FB184819490560194F0A686FF35B4247EAB8
:205B2C000200086016490868C0F30130012806D10A681448104040F400320A60086020685E
:205B4C000028FCD1F8BDFEE718130050A0100050840460425C600C40082204430C006842D6
:205B6C0004000020B03F00500040034080012843000120438C210840482003400000390109
:205B8C0004000940FFFFFCFC70B5ADF1380D00F01FF9324908682822082340F002000860AC
:205BAC0001A8002106F016FC2D4EB0782E4907902C48002301AA06F009FC0021302208237B
:205BCC0001A806F00FFC002519213078284AADF81C5001AB09902548009506F0FFFB282204
:205BEC00082301A8294606F0F5FBF07822490790204801AA2B4606F0E9FB3022082301A882
:205C0C00294606F0EFFB01241A2170781C4AADF81C4001AB09901948009506F0DFFB19480E
:205C2C0019492A46134606F0BDFB1848FAF75CFA1849194E0C70164835704FF6FF728283D6
:205C4C00C577164B1D70164C257016490D70174E3560154A15700EB070BDC0460020094003
:205C6C0072E40000882D002029BD00008C2E00202DB60000BC2D0020E1740000A82E0020F6
:205C8C0005950000F02D002071AF0000A16B0000342E0020722F0020772F0020742F002029
:205CAC00732F0020782F0020792F0020542F00202DE9F04F0C464549CA7AADF12C0D8446CA
:205CCC000592487B09900D7900958A7A488B4B8A0E7B91F805A091F802800492B1F846E0D7
:205CEC0008904A7A088B0392CD7807900A7AC88A02920F6A0690CA79888A01928A79E146AD
:205D0C00A9F54079B9F11D0F10D8DFE809F05B5553514F4D4B494643413F3C3A380F3431F3
:205D2C002E2B2923201E1C0F19181716BCF1280F49DA604604F06EFA21E0099EB246D0462C
:205D4C00CDF814801DE00898079007980690DDF818E005E03831086820608888A08032E028
:205D6C0070460AE0B1F8440009E0B1F8420004E0B1F8400001E091F83E00034612E0208066
:205D8C0021E0059804900498039001E03231E2E7039802900298009006E0019A87310DE00C
:205DAC0068310BE01846EAE7009D0BE02C31D2E7276008E0583100E048311022204601F0AC
:205DCC00CCFC00E025700BB0BDE8F08F681100202DE9F041444C94F8E700ADF1280D0028BD
:205DEC006FD1394F387B01250021242284F8E7507E6884F8E6000823C4F80C6101A806F0A1
:205E0C0025FB002604F10C00069601ABADF814602E490796324606F0C5FA2D4904F13000F2
:205E2C0001AB324606F0BEFA2A4904F1540001AB324606F0B7FAB868014628468847DFF882
:205E4C009C8025487B7B0078D8F80410C1F381571BB1032F03D184F8E150032F16D0022F07
:205E6C0014D0012F26D103201D4C009031464FF040521C23204603F099FE009531464FF429
:205E8C0000720923204603F091FE13E0022005F039F8032F0CBF4FF47A7142F210711148FC
:205EAC0000685434B1FBF0F1204606F0BBFA204606F0B4FAD8F80000C00802D2304605F067
:205ECC0021F80AB0BDE8F081D0E30000B3870000117C00005D8000007A2F0020B03F00506E
:205EEC0000A00C4080E40000A81600202DE9F0430746880FADF1140D75D303F02DFD404D8A
:205F0C0000261C352E60394845F81C0C012000F088F93748FAF7E8F8BC68B14640F60A014C
:205F2C00344A6680537B118090465680107BC2F8049003F0F00300F0F000107343F001038D
:205F4C00537300E01C46636813B118888142F9D1C4F80480607B00F0F0006073264806F03F
:205F6C00B0F980680088C91F81421DD0491C81421AD03B8CC3B197F82C107E8497F82D008E
:205F8C00C7F8249001F0F00100F0F00087F82C1040F0010087F82D0007F12003C8F8043019
:205FAC00507B00F0F0005073B868694605F006FC684605F0A3FFB86801F0BBF828680028E0
:205FCC00FCD02E60012005F0F9FC012808D0607B00F0F00040F0010060730848FAF784F8D3
:205FEC00B86845F81C0C05B0BDE8F08301010E04AD2E0000042F0020F02E0020A992000088
:20600C00001004402DE9F04105F010FE3F4D3E4EDFF8FC800446A00820D330464168E9B1CD
:20602C00002242608B690A690F6922401A4342F0020205F108038A611A68BA4301F1100748
:20604C001A6097E80C002A680C301B1C9A432A6004F0EAFC4046022105F07CFE7068A10850
:20606C0015D200F1100191E80C00002702EA04013B40002B08BF002909D081691440B060D1
:20608C000C4384614FF48041404605F063FE7068002837D1304606F014F9071C32D01E48D4
:2060AC00F9680068884228D1B86803F0FBF919490860E8B905F1080138690A681043086009
:2060CC002B6807F1100494E80300081C1843286000222A61B86845F80C0C05F110000068FF
:2060EC000028FAD0304605F0B9FD7760BDE8F081086802F097FDBDE8F08140464FF48051EE
:20610C0005F028FEBDE8F081F02E00200C100440882D0020502F0020602F00202DE9F04338
:20612C000746ADF11C0D06F035F904F073FE4FF000090646CDF80C9006F002F830F00100B0
:20614C0002D00398B04202D16FF0040066E078684C4658B1B0F1FF3F05D004A904F042FE48
:20616C0030B1804659E04FF0FF3000E02046049006F00CF9049D4FF001082D1802E00A4690
:20618C003BE004937068049906F0FCF800282DD0684603F032F9D8B99DF8040005A904F025
:2061AC0073FB88B9BB68BDF814009DF80610029A984748B1BDF814009DF80650B881029B8F
:2061CC00BD73C8463B6111E0029903A804F0E8FF0498641CB0F1FF3FD4D00028D2D006F068
:2061EC00D5F82B1A02D004989842CAD2039F05F055FC06F1080547B13A4652F80C1C00299E
:20620C00BDD1296842F80C1C2F6005F0BBFD24B1706806F0B3F8641EFAD1404607B0BDE838
:20622C00F08370472DE9F04707467D68D7F8089090460C4606F0FEF8AE6A8246002E64D1EB
:20624C0005F1F00005F03EFB2C620024EC7750466C6206F0EBF806F0EDF82F4E3378824601
:20626C0023B9022004F04EFE01203070504606F0DDF82A4A1068414640F48070106038462D
:20628C0004F02CFAA862C0B93846414603F0D6FBA878D0B9A96805F1B80006F073F8E8B922
:2062AC00AC621020E8774946284602F09BF906F0C1F88246307840B323E0D9F80010886BC9
:2062CC0040F020008863A87810B12046BDE8F087A96805F1B80006F055F810B1686ABDE8DA
:2062EC00F0873846414603F0A9FB1020AC624946E877284602F076F906F09CF8824630788A
:20630C0018B1022004F0E6FD3470504606F08EF84FF0FF30BDE8F0877E2F00203010004022
:20632C002DE9FC4191EA03084CBF4FF000484FF000084FEAC32545EA52554FEAC2264FEA4E
:20634C0043077F0D11BF45F0004500210020BDE8FC815FF4E06E1EF1FF0E774555D04FEAD7
:20636C00C12343EA50534FEAC0224FEA4104640D11BF43F0004300210020BDE8FC817445F1
:20638C0043D0E419A3FB0501A3FB06E7A2FB06631EEB030E57F1000751F10001A2FB0563FB
:2063AC001EEB060E57F1000751F10001FF1851F10001C01951F100014CBF4FF4806E4FF42D
:2063CC00007E10EB0E0051F1000148BF641C01D4400049415FF44077FF37E41BDEBF0021C4
:2063EC000020BDE8FC8117F58067BC420DD24FEAD02040EA41504FEA41014FEA113141EA7A
:20640C00045141EA0801BDE8FC810020FF21C900C91D090551EA0801BDE8FC812DE9F0411B
:20642C0004466668A7680D46ADF1380D06F002F896F8DC10012903D105F0F8FF00205EE041
:20644C004FF0010886F8DC8005F0F0FFE968204602F0B6FB0028F1D1287830706868706006
:20646C00287A002130220823F06001A805F0BAFF06943A7B099200250095224AB96806F101
:20648C00100001AB05F0AAFF01A828220823294605F0A0FF396907911B49059406F12C001B
:2064AC0001AA2B4605F092FF01A824220823294605F0A0FF06F160008DF81C80414601AA67
:2064CC0005F094FF307838B906F17C00294601AA05F08CFF0D4870603572C6F8BC50C6F82E
:2064EC00C050786800F096FC204603F017FB084A06F1C8000421234604F0BEFF20460EB03F
:20650C00BDE8F081D5690000A191000023C2000029BF00002DE9F04390460A68D8F800407B
:20652C001678814600271D463846ADF1140D531C242E0B6053D112F8016F5B1C4C2E0B600D
:20654C000ED1AA68E41C24F00304241D54F8040C494602F06DFD2968EF600127091A2960E7
:20656C00462E1AD1E41C24F00304241D54F8040CE41C029024F00304241D54F8040C002787
:20658C0049460390AA68ADF8047001A801F096F82968EF600127091A2960532E1FD1E41C55
:2065AC0024F00304241D54F8040CE861C8F80040288B0090A968EA69D9F800004346FCF7DA
:2065CC002DFED9F80040002714B10119C9F80010D8F800402968EF60091A01272960662E44
:2065EC000AD12B8B23B9E41D24F00704083403E0E41C24F00304241D1FB9E9690E700127B7
:20660C00EF60C8F8004005B0BDE8F08334482DE9F0410E4601683348008806AF98461546E1
:20662C00ADF1200DF8B13048006801421BD02F480068014204D12E4800680088014212D04A
:20664C002E4840F2D2630468009311A20192029603950023049305930693274B1A88254B6D
:20666C00186807A3A047CDF80080388832462B460190002002F06AFE08B0BDE8F081C04630
:20668C0070726F6A6563745F7A65726F2E6300C02843422920436861726163746572697328
:2066AC007469632076616C7565206368616E67653A2073766328307825303478292070613A
:2066CC0072616D4944282564292E2053656E64696E67206D736720746F206170702E00C038
:2066EC0090E40000D0E40000400500003C05000044050000ACE4000084050000A8E40000F2
:20670C002DE9F043814634480E4601683048008807AF98461546ADF11C0DF8B12F480068E6
:20672C0001421BD02E480068014204D12D4800680088014212D0274840F2DF6304680093BD
:20674C0011A20192029603950023049305930693254B1A88254B186807A3A047CDF80080F4
